:100000000C94BF000C94E7000C94E7000C94E700FC
:100010000C94E7000C94E7000C94E7000C94E700C4
:100020000C94E7000C94E7000C9476030C94E50321
:100030000C94E7000C94E7000C94E7000C94E700A4
:100040000C94E7000C94E7000C94E7000C94E70094
:100050000C94E7000C94E7000C94E7000C947206F3
:100060000C94E7000C94E7000C94E7000C94E70074
:100070000C94E7000C94E7000C94E7000C94E70064
:100080000C9417060C94E7000C94E7000C94E7001E
:100090000C94E7000C94E7000C94E7000C94E70044
:1000A0000C94E7000C94E7000C94E70003080B00A5
:1000B00002020200000904000001020200000524FF
:1000C0000010010524010101042402060524060094
:1000D000010705810310004009040100020A000025
:1000E00000070502024000000705830240000004EB
:1000F00003090412010002EF02014041233680008F
:10010000010102030141726475696E6F204C4C431A
:100110000041726475696E6F204C656F6E61726428
:100120006F0000000000250028002B002E00310089
:1001300000000000240027002A002D0030000404E5
:100140000404040304050202020204030202020280
:100150000606060606060404020202040404080257
:10016000011040804010204080408008020401803F
:10017000402010020110801020404020BC061124B5
:100180001FBECFEFDAE0DEBFCDBF11E0A0E0B1E0EF
:10019000E2E5F1E102C005900D92A632B107D9F770
:1001A00021E0A6E2B1E001C01D92A03BB207E1F759
:1001B00010E0CFEBD0E004C02197FE010E94A1081F
:1001C000CE3BD107C9F70E94D1060C94A7080C9426
:1001D0000000E6E6F1E02491E7E4F1E08491882371
:1001E00099F090E0880F991FFC01E05DFE4FA5910A
:1001F000B491FC01EE5DFE4F859194918FB7F89418
:10020000EC91E22BEC938FBF0895FC018091AF013C
:10021000882311F13FB7F89482E08093E9002091A0
:10022000F200822F90E01816190614F481E090E095
:10023000882339F0289844E64093AE014091F100BC
:100240004083222339F02091F200211103C02BE6D4
:100250002093E8003FBF08958FEF9FEF08952FB7D9
:10026000F89483E08093E9009091E800892F8072F0
:1002700095FF04C09091F20080E4891B2FBF089580
:100280008091A60181110DC082E08093A20184E0DB
:100290008093A3011092A5011092A40181E08093A4
:1002A000A60182EA91E00895CF93DF931F92CDB724
:1002B000DEB76983DC01ED91FC910280F381E02DD2
:1002C00041E050E0BE016F5F7F4F09950F90DF91D5
:1002D000CF91089583E08093E9008091F200882314
:1002E00019F08AE38093E80008950E942F0190E0BE
:1002F0000895CF93DF931F92CDB7DEB7FC018485BD
:10030000958597FD08C02FEF3FEF358724870F9025
:10031000DF91CF910895CE0101960E9405010197CA
:1003200019F4898190E0F3CF8FEF9FEFF0CF0F9317
:100330001F93CF93DF931F92CDB7DEB78C01FC01E3
:100340008485958597FF0BC0CE0101960E9405011B
:10035000019771F4898190E0F80195878487F8010D
:10036000848595850F90DF91CF911F910F9108950E
:100370008FEF9FEFF1CFFC018485958597FD0BC032
:100380009FB7F89482E08093E9008091F2009FBFCC
:1003900090E0019608959FB7F89482E08093E90079
:1003A0008091F2009FBF90E0089540914C015091E0
:1003B0004D0120914A0130914B0142175307B4F48B
:1003C0009091E8009570E1F39091E80092FD19C0DA
:1003D0008093F10080914C0190914D0101968F73B3
:1003E0009927892B19F48EEF8093E80080914C01B6
:1003F00090914D01019690934D0180934C0181E0C5
:10040000089580E00895EF92FF920F931F93CF938A
:10041000DF93F82E192FE62E042F81E0860F880F28
:100420000E94D50183E00E94D501CF2DD12FEC0E83
:10043000FD2EF11CCE15DF05B9F007FF13C0FE013C
:1004400084910E94D501182F80E00E94D50181235C
:1004500021968111EFCFDF91CF911F910F91FF90E6
:10046000EF9008958881EDCF81E0F5CFDF92EF9294
:10047000FF920F931F93CF93DF93D82E8A01EB0146
:100480007B01E40EF51ECE15DF0559F0D7FE12C034
:10049000FE0184910E94D50121968111F4CF0FEFC6
:1004A0001FEFC801DF91CF911F910F91FF90EF9047
:1004B000DF9008958881EECF0F931F93CF93DF9342
:1004C0001F92CDB7DEB782E0898342E450E06DEA47
:1004D00070E080E80E9436020E944001DC01129622
:1004E0000D911C910115110589F0D801ED91FC9138
:1004F0000280F381E02DBE016F5F7F4FC801099537
:1005000097FD04C0F80100851185ECCF89810F901B
:10051000DF91CF911F910F910895615030F020919C
:10052000F100FC0120830196F8CF289884E680939F
:10053000AE0108953FB7F894809130019091310158
:10054000A0913201B091330126B5A89B05C02F3F81
:1005500019F00196A11DB11D3FBFBA2FA92F982FE9
:100560008827BC01CD01620F711D811D911D42E0E4
:10057000660F771F881F991F4A95D1F708958F92AC
:100580009F92AF92BF92CF92DF92EF92FF924B0178
:100590005C010E949A026B017C010E949A026C1914
:1005A0007D098E099F09683E734081059105A8F376
:1005B00021E0821A9108A108B10888EEC80E83E0F4
:1005C000D81EE11CF11C81149104A104B10429F787
:1005D000FF90EF90DF90CF90BF90AF909F908F9063
:1005E00008958F929F92AF92BF92CF92DF92EF9237
:1005F000FF920F931F93CF93DF936C017B018A01CE
:1006000080910C01882309F45CC08091AF0188239C
:1006100009F457C08091510180FF05C08091E0002E
:1006200082608093E000E801B12C8AEFA82E93E06D
:10063000892E2AE3922E209711F4BB20D9F10E9433
:100640002F0181110AC0AA94AA20D9F161E070E0BB
:1006500080E090E00E94BF02EECF8C171D0611F0E3
:100660000CF08C2F9FB7F8948092E9002091E8005D
:1006700025FD02C09FBFDFCF282F30E0C21BD30B68
:10068000F701815020F041914093F100FACFE20E42
:10069000F31EBB2021F09092E800B12CEBCF8091AB
:1006A000E80085FDE7CF9092E800BB24B394209743
:1006B00009F3F3CF5D9884E680935001101611067C
:1006C0003CF081E090E0F6019383828310E000E04B
:1006D000C801DF91CF911F910F91FF90EF90DF90B4
:1006E000CF90BF90AF909F908F9008951F920F92E0
:1006F0000FB60F9211248F939F938091E1009091F8
:10070000E100937F9093E10083FF0FC01092E90016
:1007100091E09093EB001092EC0092E39093ED0047
:100720001092AF0198E09093F00082FF22C093E016
:100730009093E9009091F200992319F09AE3909335
:10074000E80090915001992341F09091500191500F
:1007500090935001911101C05D9A9091AE0199233F
:1007600041F09091AE0191509093AE01911101C072
:10077000289A84FF18C08091E2008E7E8160809369
:10078000E2008091E1008F7E8093E1008091510131
:100790008E7E8061809351019F918F910F900FBE4B
:1007A0000F901F90189580FFF7CF8091E2008E7E0A
:1007B00080618093E2008091E1008E7E8093E10071
:1007C000809151018E7E8160E5CF1F920F920FB60E
:1007D0000F921124CF92DF92EF92FF920F931F930B
:1007E0002F933F934F935F936F937F938F939F9339
:1007F000AF93BF93EF93FF93CF93DF93CDB7DEB764
:100800006C97DEBFCDBF1092E9008091E80083FFB6
:1008100025C068E0CE0145960E948D0282EF80934C
:10082000E8008D8987FF39C09091E80090FFFCCFE8
:10083000982F907609F034C19E894F89588D2F8961
:10084000F88C911131C0803861F580914F0180930F
:10085000F1001092F1008EEF8093E8006C960FB6D5
:10086000F894DEBF0FBECDBFDF91CF91FF91EF9126
:10087000BF91AF919F918F917F916F915F914F91B8
:100880003F912F911F910F91FF90EF90DF90CF90AC
:100890000F900FBE0F901F9018959EEF9093E80059
:1008A000C7CF1092F100D5CF913059F48111D3CF39
:1008B0004130510581F680914F018D7F80934F012A
:1008C000CACF933049F48111C6CF4130510519F692
:1008D00080914F018260F2CF953041F48091E80021
:1008E00080FFFCCF20682093E300B5CF963009F05D
:1008F000A9C00B8D1C8D22E01092E90010924D01D1
:1009000010924C01F2122EC010924B0110924A012B
:100910000E945C021F8299E09983FA8291E09E8393
:1009200090EA98879AEF998720914C0130914D0178
:10093000275F3F4F3C832B838D831092E9001092F9
:100940004D0110924C0110934B0100934A0149E074
:1009500050E0BE016F5F7F4F80E00E9436020E9430
:100960005C0279CF10934B0100934A010E94400131
:10097000DC0112960D911C910115110509F451C16C
:10098000D801ED91FC910480F581E02DBE016B5EF4
:100990007F4FC8010995009709F03EC1F801008515
:1009A0001185EACFF3E0FF120EC08F89882309F486
:1009B00040C0823061F440E860E181E191E00E9452
:1009C0000302811148CF81E28093EB0047CF813051
:1009D00029F440E86BE085E091E0F1CF833099F7AE
:1009E0000E944001DC011296ED90FC908E010F5F99
:1009F0001F4F6801E114F10479F0D701ED91FC91EA
:100A00000680F781E02DB801C7010995080F111D77
:100A1000F701E084F184EECFD8011C92F601019039
:100A20000020E9F73197BF016C197D0940E0C6014C
:100A3000C6CF6FEE70E0FB01449150E080E80E9469
:100A4000360209CF973009F4BECF983021F481E007
:100A50008093F10000CF993009F0FDCE837009F04A
:100A6000B2CFEEE0F1E081E031E096E32191222384
:100A700071F08093E9003093EB00DF0111972C9126
:100A80002093EC009093ED008F5F873079F78EE72D
:100A90008093EA001092EA008F898093AF01DBCE49
:100AA0008B8D9C8D1092E90010924D0110924C019B
:100AB00090934B0180934A01898D811192C08E8958
:100AC0009D89913A49F4813209F07DCF47E050E0A9
:100AD00065E071E080E0B3CF913209F074CF8332EA
:100AE00069F48F89988DB0E0A0E080930101909324
:100AF0000201A0930301B0930401ADCE803269F4EA
:100B00008091E80082FFFCCF67E085E091E00E94E1
:100B10008D028BEF8093E8009ECE823209F09BCE4F
:100B20008F8980930C01EEEFFFE7859194918B3FC5
:100B30009C4D51F1E0E0F8E08091050190910601B3
:100B4000A0910701B0910801803B9440A105B10537
:100B5000F1F480910C0180FD1AC0EE3F8AE0F807A5
:100B600089F587E797E79183808380916000809380
:100B70004E0188E19BE00FB6F894A8958093600041
:100B80000FBE9093600067CEEEEFFAE0D5CF808184
:100B900091818737974709F05ECEA89580916000D4
:100BA00088618093600080914E0180936000EE3FE9
:100BB0002AE0F20789F08091FE0A9091FF0A918362
:100BC000808349CE808191818737980751F2909335
:100BD000FF0A8093FE0AC5CF1092FF0A1092FE0A08
:100BE0003ACE0E944001DC0112960D911C91011534
:100BF000110509F4E8CED801ED91FC910190F08146
:100C0000E02DBE016B5E7F4FC8010995811123CE97
:100C1000F80100851185EBCF181619060CF41BCED0
:100C2000D2CEF1E0FF12BECE63EF70E004CF1F9290
:100C30000F920FB60F9211248F939F93AF93BF9390
:100C4000EF93FF9380913E0190913F01A09140016D
:100C5000B0914101892B8A2B8B2BA1F19091350109
:100C6000E0913601F091370180818927808380915E
:100C70003E0190913F01A0914001B09141011816B1
:100C800019061A061B069CF480913E0190913F01C3
:100C9000A0914001B09141010197A109B109809350
:100CA0003E0190933F01A0934001B0934101FF9119
:100CB000EF91BF91AF919F918F910F900FBE0F90C9
:100CC0001F901895809171008D7F809371008091A5
:100CD0003501E0913601F0913701908180958923AB
:100CE0008083E5CF1F920F920FB60F9211242F939E
:100CF0003F938F939F93AF93BF9380912C019091DB
:100D00002D01A0912E01B0912F0130912B0123E0F4
:100D1000230F2D3758F50196A11DB11D20932B01EE
:100D200080932C0190932D01A0932E01B0932F015D
:100D30008091300190913101A0913201B091330145
:100D40000196A11DB11D8093300190933101A093B4
:100D50003201B0933301BF91AF919F918F913F9139
:100D60002F910F900FBE0F901F90189526E8230F1C
:100D70000296A11DB11DD2CFE2E5F1E013821282ED
:100D800088EE93E0A0E0B0E084839583A683B783E8
:100D900088E191E0918380838FEF9FEF958784872F
:100DA0000895789484B5826084BD84B5816084BDE3
:100DB00085B5826085BD85B5816085BD80916E00F9
:100DC000816080936E00109281008091810082602A
:100DD0008093810080918100816080938100809167
:100DE0008000816080938000809191008260809378
:100DF000910080919100816080939100809190009A
:100E00008160809390008091C10084608093C100D4
:100E10008091C10082608093C1008091C100816097
:100E20008093C1008091C30081608093C300809152
:100E3000C00082608093C0008091C2008160809376
:100E4000C20080917A00846080937A0080917A0059
:100E5000826080937A0080917A00816080937A002A
:100E600080917A00806880937A001092AF0110928E
:100E70004F01109251018091D70081608093D7007B
:100E800080EA8093D80089B5806189BD89B5826088
:100E900089BD09B400FEFDCF61E070E080E090E024
:100EA0000E94BF028091D8008F7C80618093D8001F
:100EB0008091E000807F8093E0008091E1008E7E51
:100EC0008093E1008DE08093E200559A209A0E9481
:100ED000E9005CEA652E50E0752E6FEB462E7FEB45
:100EE000E72E7BE3F72E06E611E0E0E0CE2EE0E011
:100EF000DE2EF6E18F2EF4E09F2EA12CB12C49E0DE
:100F0000342E80910001893061F5F301C491C7FD51
:100F10000BC10E94E900CC2309F454C0C23009F48B
:100F200003C1C13009F473C0C33009F4ABC0C4308D
:100F300009F4DFC0C13009F470C00CF0F0C0C11179
:100F4000F3C08FEB87BD8092460190924701A0923B
:100F50004801B092490180916E00826080936E00DA
:100F6000E3C08F3F09F0E0C030920001F301C4916B
:100F7000CF3F09F4D9C0C13059F158F0C33009F45A
:100F80005EC0C43009F496C0C7FDCEC00E94E9001F
:100F9000C5CF14BC15BC84B5826084BD85B58160A5
:100FA00085BDE7E4F1E08491E82FF0E0EE0FFF1F4C
:100FB000EE5DFE4F85919491F80184918093390103
:100FC0000E94E90085B5887F836085BD8EEEBACF2B
:100FD000109280001092810080918100886080933F
:100FE000810080918100816080938100E7E4F1E0DD
:100FF0008491E82FF0E0EE0FFF1FEE5DFE4F85912C
:101000009491F8018491809338010E94E9008091C5
:101010008100887F816080938100F0928900E09256
:1010200088008092420190924301A0924401B092C4
:10103000450180916F00826080936F0075C01092AF
:1010400090001092910080919100886080939100AF
:1010500080919100816080939100E7E4F1E08491B8
:10106000E82FF0E0EE0FFF1FEE5DFE4F85919491AB
:101070009093370180933601F80184918093350174
:101080000E94E90080919100887F816080939100A7
:10109000F0929900E092980080923E0190923F0178
:1010A000A0924001B09241018091710082608093D2
:1010B00071003AC01092C0001092C1008091C1002E
:1010C00088608093C1008091C10081608093C100DD
:1010D000E7E4F1E08491E82FF0E0EE0FFF1FEE5D12
:1010E000FE4F85919491F8018491809334010E9480
:1010F000E9008091C100887F81608093C1004092A7
:10110000CF0080923A0190923B01A0923C01B092B4
:101110003D018091720080648093720005C0C330ED
:1011200009F4B6CFC43059F360ED77E080E090E089
:101130000E94BF02C114D10409F4E3CE0E94000052
:10114000DECEEE0FFF1F0590F491E02D0994F89488
:02115000FFCFCF
:10115200FFFFFFFFFF00E100000000000000C18070
:1011620081000000000000005401F10275016A01D3
:06117200BB0179019701A9
:00000001FF
